{
  "contractName": "Ca",
  "abi": [
    {
      "constant": false,
      "inputs": [],
      "name": "removeKey",
      "outputs": [],
      "payable": false,
      "stateMutability": "nonpayable",
      "type": "function"
    },
    {
      "constant": true,
      "inputs": [],
      "name": "max",
      "outputs": [
        {
          "name": "",
          "type": "uint256"
        }
      ],
      "payable": false,
      "stateMutability": "view",
      "type": "function"
    },
    {
      "constant": true,
      "inputs": [],
      "name": "getKey",
      "outputs": [
        {
          "name": "_data",
          "type": "bytes"
        }
      ],
      "payable": false,
      "stateMutability": "view",
      "type": "function"
    },
    {
      "constant": false,
      "inputs": [
        {
          "name": "_publickey",
          "type": "bytes"
        }
      ],
      "name": "putKey",
      "outputs": [
        {
          "name": "_result",
          "type": "bool"
        }
      ],
      "payable": false,
      "stateMutability": "nonpayable",
      "type": "function"
    },
    {
      "anonymous": false,
      "inputs": [
        {
          "indexed": true,
          "name": "_sender",
          "type": "address"
        },
        {
          "indexed": false,
          "name": "_publickey",
          "type": "bytes"
        }
      ],
      "name": "KeyPut",
      "type": "event"
    },
    {
      "anonymous": false,
      "inputs": [
        {
          "indexed": true,
          "name": "_sender",
          "type": "address"
        },
        {
          "indexed": false,
          "name": "_publickey",
          "type": "bytes"
        }
      ],
      "name": "KeyDeleted",
      "type": "event"
    }
  ],
  "bytecode": "0x6060604052341561000f57600080fd5b61047e8061001e6000396000f300606060405260043610610062576000357c0100000000000000000000000000000000000000000000000000000000900463ffffffff1680632e8a2400146100675780636ac5db191461007c57806382678dd6146100a5578063cee1ac8f14610133575b600080fd5b341561007257600080fd5b61007a6101a8565b005b341561008757600080fd5b61008f6101f4565b6040518082815260200191505060405180910390f35b34156100b057600080fd5b6100b86101fa565b6040518080602001828103825283818151815260200191508051906020019080838360005b838110156100f85780820151818401526020810190506100dd565b50505050905090810190601f1680156101255780820380516001836020036101000a031916815260200191505b509250505060405180910390f35b341561013e57600080fd5b61018e600480803590602001908201803590602001908080601f016020809104026020016040519081016040528093929190818152602001838380828437820191505050505050919050506102de565b604051808215151515815260200191505060405180910390f35b6000803373ffffffffffffffffffffffffffffffffffffffff1673ffffffffffffffffffffffffffffffffffffffff16815260200190815260200160002060006101f29190610351565b565b61040081565b610202610399565b6000803373ffffffffffffffffffffffffffffffffffffffff1673ffffffffffffffffffffffffffffffffffffffff1681526020019081526020016000208054600181600116156101000203166002900480601f0160208091040260200160405190810160405280929190818152602001828054600181600116156101000203166002900480156102d45780601f106102a9576101008083540402835291602001916102d4565b820191906000526020600020905b8154815290600101906020018083116102b757829003601f168201915b5050505050905090565b6000610400825111156102f4576000905061034c565b816000803373ffffffffffffffffffffffffffffffffffffffff1673ffffffffffffffffffffffffffffffffffffffff16815260200190815260200160002090805190602001906103469291906103ad565b50600190505b919050565b50805460018160011615610100020316600290046000825580601f106103775750610396565b601f016020900490600052602060002090810190610395919061042d565b5b50565b602060405190810160405280600081525090565b828054600181600116156101000203166002900490600052602060002090601f016020900481019282601f106103ee57805160ff191683800117855561041c565b8280016001018555821561041c579182015b8281111561041b578251825591602001919060010190610400565b5b509050610429919061042d565b5090565b61044f91905b8082111561044b576000816000905550600101610433565b5090565b905600a165627a7a72305820eec47eaed3069cb42f8f27a4053a110d78698d6d45808e8be11bb2b0c04979000029",
  "source": "pragma solidity ^0.4.2;\r\n\r\ncontract Ca {\r\n    uint256 public constant max = 1024;\r\n    \r\n   mapping(address => bytes) publickeys;\r\n   \r\n   // Triggered when _publickey is put.\r\n    event KeyPut(address indexed _sender, bytes _publickey);\r\n\r\n   // Triggered when _publickey is deleted.\r\n    event KeyDeleted(address indexed _sender, bytes _publickey);\r\n \r\n     function putKey(bytes _publickey) public returns (bool _result){\r\n         if(_publickey.length > max ){\r\n             return false;\r\n         }\r\n         \r\n        publickeys[msg.sender] = _publickey;\r\n        return true;\r\n    }\r\n\r\n    function getKey() constant public returns(bytes _data) {\r\n      return publickeys[msg.sender];\r\n    }\r\n    \r\n     function removeKey()  public {\r\n       delete publickeys[msg.sender];\r\n    }\r\n}\r\n",
  "sourcePath": "/Users/zhuojian/Downloads/help/truffle-project/contracts/Ca.sol",
  "compiler": {
    "name": "solc",
    "version": "0.4.18+commit.9cf6e910.Emscripten.clang"
  },
  "schemaVersion": "1.0.1",
  "updatedAt": "2017-11-06T10:54:18.467Z"
}